:100000000C94D7000C94FF000C94FF000C94FF009C
:100010000C94FF000C94FF000C94FF000C94FF0064
:100020000C94FF000C94FF000C94E6080C944F090C
:100030000C94FF000C94FF000C94FF000C94FF0044
:100040000C94FF000C94FF000C94FF000C94FF0034
:100050000C94FF000C94FF000C94FF000C949C087F
:100060000C94FF000C94FF000C94FF000C94FF0014
:100070000C94FF000C94FF000C94FF000C94FF0004
:100080000C94FF000C94FF000C94FF000C94FF00F4
:100090000C94FF000C94FF000C94FF000C94FF00E4
:1000A0000C94FF000C94FF000C94FF00080B00025E
:1000B0000202000009040000010202000005240001
:1000C0001001052401010104240206052406000193
:1000D0000705810310004009040100020A00000026
:1000E00007050202400000070583024000000403E8
:1000F000090412010002EF0201409A230E000001E0
:100100000102030141646166727569740049747388
:100110007942697473792033327534203556203131
:10012000364D487A0000000000240027002A002DE8
:100130000030000000000200090F0000030401006D
:100140000C000000000000000000000000000000A3
:100150000000000000002300260029002C002F00D2
:1001600000000000250028002B002E0031000404B0
:100170000404040304050202020204030202020250
:100180000606060606060404020202040404080227
:10019000011040804010204080408008020401800F
:1001A000402010020110801020404020910B1124AB
:1001B0001FBECFEFDAE0DEBFCDBF11E0A0E0B1E0BF
:1001C000E2EBFCE102C005900D92AC35B107D9F726
:1001D00022E0ACE5B1E001C01D92A536B207E1F71F
:1001E00010E0C7EDD0E004C02197FE010E94170E79
:1001F000C63DD107C9F70E94DD0B0C94570E0C9435
:100200000000DC0117962C91179730E0F901E357B5
:10021000FE4FE4911696EC93169722593E4FF90142
:100220008491E82FF0E0EE0FFF1FE05AFE4F85911A
:10023000949113969C938E931297F9012491E22F37
:10024000F0E0EE0FFF1FEE5AFE4F85919491159648
:100250009C938E93149708959091E201911103C09D
:100260008FEF9FEF08954FB7F89492E09093E900D5
:100270009091F200292F30E01216130614F421E0B9
:1002800030E0232B29F084E68093E1018091F10096
:10029000992339F02091F200211103C02BE620931D
:1002A000E8004FBF9923E1F290E008952FB7F8944A
:1002B00083E08093E9009091E800892F807295FF98
:1002C00004C09091F20080E4891B2FBF08958091B3
:1002D000D90181110DC082E08093D50184E0809323
:1002E000D6011092D8011092D70181E08093D901F4
:1002F00085ED91E0089581508F3008F047C0E82FD8
:10030000F0E0EB57FE4F0C94170EA201A6019401EA
:100310009A019E01C601C601C601A901AF01B30140
:10032000B701BD01C601C101809180008F77809324
:1003300080000895809180008F7DF9CF80918000AA
:10034000877FF5CF84B58F7784BD089584B58F7D81
:10035000FBCF809190008F778093900008958091DB
:1003600090008F7DF9CF80919000877FF5CF8091AD
:10037000C0008F778093C00008958091C0008F7D6A
:10038000F9CF8091C200877F8093C20008951F93A8
:10039000CF93DF93282F30E0F901ED5CFE4F84917D
:1003A000F901E357FE4FD491F901E259FE4FC49190
:1003B000CC23A9F0162F81110E947B01EC2FF0E0D5
:1003C000EE0FFF1FE05AFE4FA591B4918FB7F8943E
:1003D000EC91111108C0D095DE23DC938FBFDF9123
:1003E000CF911F910895DE2BF8CFCF93DF9390E04C
:1003F000FC01E357FE4F249182599E4FFC018491EA
:100400008823C9F090E0880F991FFC01EB5DFE4F37
:10041000A591B491FC01E05AFE4FC591D4916111B0
:100420000DC09FB7F8948C91209582238C9388817E
:10043000282328839FBFDF91CF910895623051F424
:100440009FB7F8943C91822F809583238C93E88109
:100450002E2BEFCF8FB7F894EC912E2B2C938FBFD0
:10046000EACF3FB7F8948091D1019091D201A09149
:10047000D301B091D40126B5A89B05C02F3F19F038
:100480000196A11DB11D3FBFBA2FA92F982F882714
:10049000BC01CD01620F711D811D911D42E0660FEF
:1004A000771F881F991F4A95D1F70895CF92DF9241
:1004B000EF92FF920E9431026B017C010E94310297
:1004C0006C197D098E099F09683E7340810591056D
:1004D000A8F3FF90EF90DF90CF900895862F642FC0
:1004E0000C94F50180E991E00895409160015091EC
:1004F000610120915E0130915F0142175307B4F40E
:100500009091E8009570E1F39091E80092FD19C098
:100510008093F100809160019091610101968F7349
:100520009927892B19F48EEF8093E8008091600160
:10053000909161010196909361018093600181E047
:10054000089580E00895EF92FF920F931F93CF9349
:10055000DF93F82E192FE62E042F81E0860F880FE7
:100560000E94750283E00E947502CF2DD12FEC0E00
:10057000FD2EF11CCE15DF05B9F007FF13C0FE01FB
:1005800084910E947502182F80E00E9475028123D9
:1005900021968111EFCFDF91CF911F910F91FF90A5
:1005A000EF9008958881EDCF81E0F5CFDF92EF9253
:1005B000FF920F931F93CF93DF93D82E8A01EB0105
:1005C0007B01E40EF51ECE15DF0559F0D7FE12C0F3
:1005D000FE0184910E94750221968111F4CF0FEFE4
:1005E0001FEFC801DF91CF911F910F91FF90EF9006
:1005F000DF9008958881EECF0F931F93CF93DF9301
:100600001F92CDB7DEB782E0898342E450E06CEA06
:1006100070E080E80E94D6020E946701DC01129619
:100620000D911C910115110589F0D801ED91FC91F6
:100630000280F381E02DBE016F5F7F4FC8010995F5
:1006400097FD04C0F80100851185ECCF89810F90DA
:10065000DF91CF911F910F9108958F929F92AF924A
:10066000BF92CF92DF92EF92FF920F931F93CF939F
:10067000DF936C017B018A0180910B01882309F4CF
:1006800057C08091E201882309F452C0809164012F
:1006900080FF05C08091E00082608093E000E80167
:1006A000B12C8AEFA82E93E0892E2AE3922E209770
:1006B00011F4BB20B9F10E945601811106C0AA9421
:1006C000AA20B1F10E945602F2CF8C171D0611F03C
:1006D0000CF08C2F9FB7F8948092E9002091E800ED
:1006E00025FD02C09FBFE3CF282F30E0C21BD30BF4
:1006F000F701815020F041914093F100FACFE20ED2
:10070000F31EBB2021F09092E800B12CEBCF80913A
:10071000E80085FDE7CF9092E800BB24B3942097D2
:1007200009F3F3CF84E680936301101611063CF0C1
:1007300081E090E0F6019383828310E000E0C8013D
:10074000DF91CF911F910F91FF90EF90DF90CF90AD
:10075000BF90AF909F908F900895CF93DF931F929B
:10076000CDB7DEB76983DC01ED91FC910280F381A6
:10077000E02D41E050E0BE016F5F7F4F09950F9083
:10078000DF91CF91089583E08093E9008091F2009A
:10079000882319F08AE38093E80008950E945601A7
:1007A00090E00895FC018485958597FD05C02FEFA5
:1007B0003FEF3587248708950C942C01CF93DF9366
:1007C000EC018C859D8597FF04C00E942C019D87BC
:1007D0008C878C859D85DF91CF910895FC01848560
:1007E000958597FD0BC09FB7F89482E08093E90050
:1007F0008091F2009FBF90E0019608959FB7F89412
:1008000082E08093E9008091F2009FBF90E008951C
:100810000F931F93CF93DF9320915D012F5F322FB2
:10082000377030935D0120FF2BC020E831FD20643C
:10083000347009F02062205FFC01EC01239600E097
:1008400011E06485662329F070E0C8010E94E10D83
:100850006F5F6187322F369F030E30E0311D112408
:10086000311110C01682662311F0615061873196F4
:10087000EC17FD0731F7DF91CF911F910F9108958C
:1008800020E0D4CF31503683EECF4F925F927F92EB
:100890008F929F92AF92BF92CF92DF92EF92FF9290
:1008A0000F931F93CF93DF932C01EB010E94310232
:1008B000F20127853089621B730B6A307105B0F332
:1008C000F8948A819B81181619060CF0CDC1E88135
:1008D000F98165B1862E689487F835B13F7735B9CF
:1008E000DA848F812D2D281B822F2F834F85042E94
:1008F000000C550BAA81BB817D85FC84EE847F5F53
:10090000F394E3949E819884B984AB841181C12CC3
:100910006C2D0C2D2C2D2181112788942111280F4D
:1009200008F42FEF8195889470FD120F1795889425
:1009300071FD120F1795889472FD120F1795889408
:1009400073FD120F1795889474FD120F17958894F4
:1009500075FD120F1795889476FD120F17958894E0
:1009600077FD120F17958894622F7111612F8D0DED
:10097000162F002C85B800C017FF35B920816627D7
:10098000889400C000C0002C35B92111290F00C087
:10099000002C85B800C016FF35B908F42FEF9195EB
:1009A000889400C000C0002C35B9F0FC620F00C074
:1009B000002C85B800C015FF35B967958894F1FC07
:1009C000620F00C000C0002C35B96795889400C044
:1009D000002C85B800C014FF35B9F2FC620F679592
:1009E000889400C000C0002C35B9F3FC620F00C031
:1009F000002C85B800C013FF35B967958894F4FCC6
:100A0000620F00C000C0002C35B96795889400C003
:100A1000002C85B800C012FF35B9F5FC620F679550
:100A2000889400C000C0002C35B9F6FC620F00C0ED
:100A3000002C85B800C011FF35B967958894F7FC84
:100A4000620F00C000C0002C35B96795889400C0C3
:100A5000002C85B800C010FF35B9122FF110162FE9
:100A60009B0D00C000C0002C35B900C000C0002C98
:100A700085B800C017FF35B922816627889400C069
:100A800000C0002C35B92111290D00C0002C85B8FB
:100A900000C016FF35B908F42FEFE40FF51F00C0B2
:100AA00000C0002C35B9E0FC620F00C0002C85B8F6
:100AB00000C015FF35B967958894E1FC620F00C04E
:100AC00000C0002C35B96795889400C0002C85B80B
:100AD00000C014FF35B9E2FC620F6795889400C02E
:100AE00000C0002C35B9E3FC620F00C0002C85B8B3
:100AF00000C013FF35B967958894E4FC620F00C00D
:100B000000C0002C35B96795889400C0002C85B8CA
:100B100000C012FF35B9E5FC620F6795889400C0EC
:100B200000C0002C35B9E6FC620F00C0002C85B86F
:100B300000C011FF35B967958894E7FC620F00C0CB
:100B400000C0002C35B96795889400C0002C85B88A
:100B500000C010FF35B9122FE110162F919400C07C
:100B600000C0002C35B99A0C00C000C085B800C088
:100B700017FF35B921816627889400C000C0002C7A
:100B800035B92111280F00C0002C85B800C016FF10
:100B900035B908F42FEF8195889400C000C0002C6F
:100BA00035B970FD620F00C0002C85B800C015FF7C
:100BB00035B96795889471FD620F00C000C0002CA4
:100BC00035B96795889400C0002C85B800C014FF23
:100BD00035B972FD620F6795889400C000C0002C83
:100BE00035B973FD620F00C0002C85B800C013FF3B
:100BF00035B96795889474FD620F00C000C0002C61
:100C000035B96795889400C0002C85B800C012FFE4
:100C100035B975FD620F6795889400C000C0002C3F
:100C200035B976FD620F00C0002C85B800C011FFF9
:100C300035B96795889477FD620F00C000C0002C1D
:100C400035B96795889400C0002C85B800C010FFA6
:100C500035B9122F7111162F8D0D00C000C0002C58
:100C600035B9119709F086CE4A815B8120EE31E0DB
:100C7000DA010E941D0EDC01CB01F4E0B695A795C8
:100C800097958795FA95D1F730E020E0B901EAE928
:100C90004E9F040E611D5E9F600D711D1124650F36
:100CA000711D860F971FA11DB11D893E43E094075A
:100CB000A105B10508F434C0885E9340A109B109CB
:100CC00042E0B695A795979587954A95D1F747E065
:100CD000849F080E211D949F200D311D1124290F82
:100CE000311D60915C0170E0860F971F820F931F8A
:100CF0004091CD015091CE016091CF017091D00112
:100D0000292F3327420F531F611D711D4093CD01C1
:100D10005093CE016093CF017093D00180935C011A
:100D200078940E943102F201708B6787DF91CF9136
:100D30001F910F91FF90EF90DF90CF90BF90AF90F9
:100D40009F908F907F905F904F90089581E090E00A
:100D50000895279A08956F927F928F92CF92DF9293
:100D6000EF92FF920F931F93CF93DF93CDB7DEB730
:100D700062970FB6F894DEBF0FBECDBF6C017A014B
:100D80003801822EDC011C962C91CA0157FF04C049
:100D900088279927841B950B7A8369839C838B838F
:100DA0009E838D836D867E868F86213049F5CE01A8
:100DB00001960E94080483E0888B1A8A198AF7FE3C
:100DC00002C08DEF888BD601ED91FC910684F785EA
:100DD000E02DBE016F5F7F4FC601099562960FB689
:100DE000F894DEBF0FBECDBFDF91CF911F910F9161
:100DF000FF90EF90DF90CF908F907F906F9008954D
:100E00001C861B861A86198618861F82D4CFEF92FD
:100E1000FF920F931F93CF93DF93CDB7DEB7629707
:100E20000FB6F894DEBF0FBECDBF7C01DC011C966F
:100E30008C917A8369835C834B835E834D830D87BA
:100E40001E872F878130F9F4CE0101960E94080495
:100E5000188A1A8A198AD701ED91FC910684F785C0
:100E6000E02DBE016F5F7F4FC701099562960FB6F7
:100E7000F894DEBF0FBECDBFDF91CF911F910F91D0
:100E8000FF90EF9008951C861B861A861986188697
:100E90001F82DECF0F931F93CF93DF9300D01F925B
:100EA000CDB7DEB7AB0119821A821B82DC01ED914E
:100EB000FC910190F081E02D00E010E020E0BE0107
:100EC0006F5F7F4F09950F900F900F90DF91CF913B
:100ED0001F910F910895CF93DF93FC01218930E09A
:100EE000F901ED5CFE4F8491F901E357FE4FD49177
:100EF000F901E259FE4FC491CC2379F081110E948F
:100F00007B01EC2FF0E0EE0FFF1FEE5AFE4FA59194
:100F1000B491EC91ED2381E009F480E08170DF91E0
:100F2000CF9108952F923F924F925F926F927F924E
:100F30008F929F92AF92BF92CF92DF92EF92FF92E9
:100F40000F931F93CF93DF93CDB7DEB729970FB6DB
:100F5000F894DEBF0FBECDBF898749835A836B8368
:100F60007C830091680110916901BDE78B2E912C63
:100F7000A12CB12C0115110509F46BC0D801ED911C
:100F8000FC910084F185E02DC80109951C01D80170
:100F90001296ED91FC91C12CD12C7601412C512C53
:100FA000320120E030E0A901009791F06081260F26
:100FB000311D411D511D6181460E511C611C711C6A
:100FC0006281C60ED11CE11CF11C01973396ECCF57
:100FD000A0E5B0E00E94240E6D837E838F83988706
:100FE000A7E3B0E0A30192010E94240E2B013C0173
:100FF000ABE4B0E0A70196010E94240E2D813E8152
:101000004F815885C32ED42EE52EFF2445E0429D06
:101010009001439D300D1124C20ED31EE11CF11C22
:101020008C0C9D1CAE1CBF1C452C562C672C7724A9
:10103000840C951CA61CB71C472F582F692F7727A7
:10104000840E951EA61EB71ED80114960D911C91F4
:1010500091CFB985CB2ED12CF12CE12CA701960193
:10106000C501B4010E94D10D872E982EA92EBB2454
:1010700029813A814B815C8182169306A406B506CC
:1010800068F0A701960169817A818B819C810E9419
:10109000D10DA50194010E94F50D29878985299616
:1010A0000FB6F894DEBF0FBECDBFDF91CF911F9179
:1010B0000F91FF90EF90DF90CF90BF90AF909F90F7
:1010C0008F907F906F905F904F903F902F900895FA
:1010D000FC01A281B3819C9186812681982381E0C5
:1010E000921380E00895FC0186810280F381E02D57
:1010F00090818095892380830895FC0196810280E8
:10110000F381E02D8081892B80830895FC01858502
:101110009685089590E080E00895FC0101900020FC
:10112000E9F73197AF01481B590BBC0183EE91E001
:101130000C942D030E94520E1F920F920FB60F9225
:1011400011242F933F938F939F93AF93BF938091DD
:10115000CD019091CE01A091CF01B091D0013091FD
:10116000CC0123E0230F2D3758F50196A11DB11DA9
:101170002093CC018093CD019093CE01A093CF0119
:10118000B093D0018091D1019091D201A091D3016F
:10119000B091D4010196A11DB11D8093D10190930E
:1011A000D201A093D301B093D401BF91AF919F918D
:1011B0008F913F912F910F900FBE0F901F90189518
:1011C00026E8230F0296A11DB11DD2CF1F920F92C8
:1011D0000FB60F9211248F939F938091E10090910D
:1011E000E100937F9093E10083FF0FC01092E9002C
:1011F00091E09093EB001092EC0092E39093ED005D
:101200001092E20198E09093F00082FF1CC093E0FE
:101210009093E9009091F200992319F09AE390934A
:10122000E80090916301992329F090916301915016
:10123000909363019091E101992329F09091E1014C
:1012400091509093E10184FF18C08091E2008E7E5E
:1012500081608093E2008091E1008F7E8093E100C5
:10126000809164018E7E8061809364019F918F9153
:101270000F900FBE0F901F90189580FFF7CF8091B1
:10128000E2008E7E80618093E2008091E1008E7E9C
:101290008093E100809164018E7E8160E5CF1F9292
:1012A0000F920FB60F921124CF92DF92EF92FF921E
:1012B0000F931F932F933F934F935F936F937F935E
:1012C0008F939F93AF93BF93EF93FF93CF93DF934E
:1012D000CDB7DEB76C97DEBFCDBF1092E90080912D
:1012E000E80083FF2FC089E0FE017596EE2EDF2E09
:1012F000815029F09091F10090833196F9CF84E6E6
:101300008093E10182EF8093E8008D8987FF39C0E7
:101310009091E80090FFFCCF982F907609F033C1B0
:101320009E894F89588D2F89F88C911131C0803852
:1013300061F5809165018093F1001092F1008EEFCC
:101340008093E8006C960FB6F894DEBF0FBECDBF59
:10135000DF91CF91FF91EF91BF91AF919F918F91CD
:101360007F916F915F914F913F912F911F910F91BD
:10137000FF90EF90DF90CF900F900FBE0F901F90D7
:1013800018959EEF9093E800C7CF1092F100D5CF4B
:10139000913059F48111D3CF4130510581F68091BC
:1013A00065018D7F80936501CACF933049F4811127
:1013B000C6CF4130510519F6809165018260F2CFA8
:1013C000953041F48091E80080FFFCCF20682093A5
:1013D000E300B5CF963009F0A8C00B8D1C8D22E03C
:1013E0001092E9001092610110926001F2122EC079
:1013F00010925F0110925E010E94FC021F8299E030
:101400009983FA8291E09E8390EA98879AEF998770
:101410002091600130916101275F3F4F3C832B8316
:101420008D831092E9001092610110926001109377
:101430005F0100935E0149E050E0BE016F5F7F4FA6
:1014400080E00E94D6020E94FC0279CF10935F01D7
:1014500000935E010E946701DC0112960D911C91C0
:101460000115110509F457C1D801ED91FC910480D3
:10147000F581E02D6E2D7D2DC8010995009709F0AD
:1014800045C1F80100851185EBCFF3E0FF120EC0D6
:101490008F89882309F440C0823061F440E867E115
:1014A0008DE091E00E94A302811149CF81E28093F7
:1014B000EB0048CF813029F440E868E084E091E017
:1014C000F1CF833099F70E946701DC011296ED900D
:1014D000FC908E010F5F1F4F6801E114F10479F059
:1014E000D701ED91FC910680F781E02DB801C7018D
:1014F0000995080F111DF701E084F184EECFD801A2
:101500001C92F60101900020E9F73197BF016C1998
:101510007D0940E0C601C6CF6EEE70E0FB0144914C
:1015200050E080E80E94D6020ACF973009F4BECF7F
:10153000983021F481E08093F10001CF993009F0D7
:10154000FECE837009F0B2CFEDE0F1E081E031E052
:1015500096E32191222371F08093E9003093EB0010
:10156000DF0111972C912093EC009093ED008F5F99
:10157000873079F78EE78093EA001092EA008F892E
:101580008093E201DCCE8B8D9C8D1092E90010924D
:1015900061011092600190935F0180935E01898DDB
:1015A00081119AC08E899D89913A49F4813209F05E
:1015B0007DCF47E050E064E071E080E0B3CF91324E
:1015C00009F074CF833269F48F89988DB0E0A0E080
:1015D0008093000190930101A0930201B093030155
:1015E000AECE8032A9F48091E80082FFFCCF88E083
:1015F000E4E0F1E0815029F09091F1009083319680
:10160000F9CF84E68093E1018BEF8093E80097CED9
:10161000823209F094CE8F8980930B01EEEFFFE7C1
:10162000859194918B3F9C4D51F1E0E0F8E08091E1
:10163000040190910501A0910601B0910701803B42
:101640009440A105B105F1F480910B0180FD1AC011
:10165000EE3F8AE0F80789F587E797E79183808373
:10166000809160008093620188E19BE00FB6F8945E
:10167000A895809360000FBE9093600060CEEEEF5F
:10168000FAE0D5CF808191818737974709F057CE0F
:10169000A8958091600088618093600080916201CC
:1016A00080936000EE3F2AE0F20789F08091FE0A05
:1016B0009091FF0A9183808342CE80819181873708
:1016C000980751F29093FF0A8093FE0AC5CF1092BB
:1016D000FF0A1092FE0A33CE0E946701DC011296C7
:1016E0000D911C910115110509F4E0CED801ED9181
:1016F000FC910190F081E02D6E2D7D2DC8010995A2
:1017000081111DCEF80100851185ECCF1816190640
:101710000CF415CECBCEF1E0FF12B7CE62EF70E045
:10172000FDCEE3EEF1E01382128288EE93E0A0E0BA
:10173000B0E084839583A683B7838DE391E09183A2
:1017400080838FEF9FEF95878487EFE4F2E010822C
:1017500011821282138214821582168217821086D9
:10176000E6E4F2E010821182128213821482158262
:10177000168217821086E3E3F2E01282138214824B
:1017800015828AE090E0978386831086118A8FE421
:1017900091E09183808381E0828BE8E5F2E08FEF36
:1017A000808312821182148613868FEF9FEFDC01F3
:1017B00087839087A187B2870895CF93DF93CDB7B2
:1017C000DEB7A1970FB6F894DEBF0FBECDBF7894F9
:1017D00084B5826084BD84B5816084BD85B5826036
:1017E00085BD85B5816085BD80916E0081608093E7
:1017F0006E00109281008091810082608093810050
:10180000809181008160809381008091800081605F
:1018100080938000809191008260809391008091FC
:10182000910081608093910080919000816080930D
:1018300090008091C10084608093C1008091C100BC
:1018400082608093C1008091C10081608093C1005B
:101850008091C30081608093C3008091C00082604A
:101860008093C0008091C20081608093C20080910B
:101870007A00846080937A0080917A0082608093FD
:101880007A0080917A00816080937A0080917A005A
:10189000806880937A001092E201109265011092A4
:1018A00064018091D70081608093D70080EA8093A3
:1018B000D80089B5806189BD89B5826089BD09B4C8
:1018C00000FEFDCF0E9456028091D8008F7C80617F
:1018D0008093D8008091E000807F8093E000809129
:1018E000E1008E7E8093E1008DE08093E2008FEF37
:1018F0009FEF9093F0018093EF0180917B01811124
:1019000045C010926D0110926C018FEF80937001B1
:1019100080937101809372018093730180937401AD
:101920008093750181E08093760110927801109286
:10193000770110926F0110926E0180916801909171
:101940006901892B31F48AE691E0909369018093D3
:101950006801E0916601F0916701309721F08AE615
:1019600091E0958384838AE691E090936701809368
:10197000660110927A011092790189E291E09093C8
:101980006B0180936A0181E080937B01279A83E851
:1019900091E090936D0180936C0188E190E09093C9
:1019A00078018093770180915B0290915C02A09115
:1019B0005D02B0915E02843C29E09207A105B10569
:1019C00020F484EC99E0A0E0B0E080935B02909377
:1019D0005C02A0935D02B0935E028FEF8093700172
:1019E00080EB8093710180EF8093720182E997E030
:1019F00090936402809363028CEE9CE2A0E0B0E0DE
:101A000080935F0290936002A0936102B0936202A0
:101A100062E084E00E94F50184E080934402109229
:101A20003B0283E392E00E946B07882329F08091B8
:101A30003B02836080933B022FB7F8948091CD01E5
:101A40009091CE01A091CF01B091D0012FBF809392
:101A5000350290933602A0933702B0933802109269
:101A6000450260E080E00E94F50160E081E00E94B4
:101A7000F50160E082E00E94F50160E083E00E94F1
:101A8000F50160E084E00E94F50160E085E00E94DD
:101A9000F50161E08AE00E94F50101E080E0E82EB6
:101AA00080E0F82E90ED892E97E0992EA12CB12C94
:101AB00023E0D22E8091460280FF2BC02FB7F894EE
:101AC0008091CD019091CE01A091CF01B091D00134
:101AD0002FBF409147025091480260914902709196
:101AE0004A02841B950BA60BB70B40914B025091F9
:101AF0004C0260914D0270914E0284179507A60723
:101B0000B70708F44CC09EEF80914602892380936A
:101B100046028091460280FD3BC01091CB01102708
:101B20001093CB01612F8AE00E94C701612F8DE0E5
:101B30000E94C70180924B0290924C02A0924D02EB
:101B4000B0924E022FB7F8948091CD019091CE01C2
:101B5000A091CF01B091D0012FBF80934702909305
:101B60004802A0934902B0934A02D092460283E50C
:101B700091E00E948D088091CB0119A2805D88A31D
:101B8000CE0180960E948D0888E591E00E948D0824
:101B9000E114F10409F48ECF0E9400008BCF9FEF77
:101BA000B3CFDB018F939F930E94240EBF91AF911F
:101BB000A29F800D911DA39F900DB29F900D1124A7
:101BC000089597FB072E16F4009407D077FD09D0EF
:101BD0000E942F0E07FC05D03EF4909581959F4FF3
:101BE0000895709561957F4F0895A1E21A2EAA1B62
:101BF000BB1BFD010DC0AA1FBB1FEE1FFF1FA217BD
:101C0000B307E407F50720F0A21BB30BE40BF50BB9
:101C1000661F771F881F991F1A9469F76095709542
:101C2000809590959B01AC01BD01CF010895EE0F09
:101C3000FF1F0590F491E02D09940E94430EB7FF19
:101C40000895821B930B08950E94430EA59F900D4B
:101C5000B49F900DA49F800D911D11240895AA1B7F
:101C6000BB1B51E107C0AA1FBB1FA617B70710F087
:101C7000A61BB70B881F991F5A95A9F780959095B9
:101C8000BC01CD010895A29FB001B39FC001A39FE5
:101C9000700D811D1124911DB29F700D811D1124A5
:101CA000911D089581E090E0F8940C94570EF894FB
:021CB000FFCF64
:101CB200FFFFFFFF00E100000000000000C1808183
:101CC200000000000000009A089A089A084A078655
:101CD20008A6068A08000000000707AB06A9064A04
:101CE200078608A6067202450400000000AD032D17
:101CF20003CE03C303EE03D203DE03000000006B36
:0C1D0200076E0246616E3A000D0A0000F8
:00000001FF
