:100000000C94D7000C94FF000C94FF000C94FF009C
:100010000C94FF000C94FF000C94FF000C94FF0064
:100020000C94FF000C94FF000C94410B0C94AA0B51
:100030000C94FF000C94FF000C94FF000C94FF0044
:100040000C94FF000C94FF000C94FF000C94FF0034
:100050000C94FF000C94FF000C94FF000C94F70A22
:100060000C94FF000C94FF000C94FF000C94FF0014
:100070000C94FF000C94FF000C94FF000C94FF0004
:100080000C94FF000C94FF000C94FF000C94FF00F4
:100090000C94FF000C94FF000C94FF000C94FF00E4
:1000A0000C94FF000C94FF000C94FF00080B00025E
:1000B0000202000009040000010202000005240001
:1000C0001001052401010104240206052406000193
:1000D0000705810310004009040100020A00000026
:1000E00007050202400000070583024000000403E8
:1000F000090412010002EF0201409A230E000001E0
:100100000102030141646166727569740049747388
:100110007942697473792033327534203556203131
:10012000364D487A0000000000240027002A002DE8
:100130000030000000000200090F0000030401006D
:100140000C000000000000000000000000000000A3
:100150000000000000002300260029002C002F00D2
:1001600000000000250028002B002E0031000404B0
:100170000404040304050202020204030202020250
:100180000606060606060404020202040404080227
:10019000011040804010204080408008020401800F
:1001A000402010020110801020404020EC0D11244E
:1001B0001FBECFEFDAE0DEBFCDBF11E0A0E0B1E0BF
:1001C000E6EBF3E202C005900D92A23BB107D9F72E
:1001D00022E0A2EBB1E001C01D92A23DB207E1F71F
:1001E00010E0C7EDD0E004C02197FE010E949911F4
:1001F000C63DD107C9F70E94430E0C94D9110C9447
:100200000000E3EFF1E0DC012D913D914C91219351
:1002100031934193B2E0EB33FB07A9F70895DC017A
:1002200017962C91179730E0F901E357FE4FE491B0
:100230001696EC93169722593E4FF9018491E82FB8
:10024000F0E0EE0FFF1FE05AFE4F85919491139658
:100250009C938E931297F9012491E22FF0E0EE0F18
:10026000FF1FEE5AFE4F8591949115969C938E93A5
:10027000149708959091EE01911103C08FEF9FEFB5
:1002800008954FB7F89492E09093E9009091F200AE
:10029000292F30E01216130614F421E030E0232B4E
:1002A00029F084E68093ED018091F100992339F0E3
:1002B0002091F200211103C02BE62093E8004FBFEC
:1002C0009923E1F290E008952FB7F89483E08093AA
:1002D000E9009091E800892F807295FF04C0909109
:1002E000F20080E4891B2FBF08958091E501811100
:1002F0000DC082E08093E10184E08093E2011092DE
:10030000E4011092E30181E08093E50181EE91E048
:100310000895282F30E0F901ED5CFE4F9491F9012A
:10032000E357FE4F849122593E4FF9012491222335
:1003300009F45BC09923E9F091509F30D0F4E92F84
:10034000F0E0EB55FE4F0C949911D001D401B401AB
:10035000C801CC01B901B901B901D701DD01E10141
:10036000E501EB01B901EF01909180009F77909337
:100370008000E22FF0E0EE0FFF1FEE5AFE4FA59136
:10038000B491EC91E82381E090E089F580E0089554
:10039000909180009F7DEBCF90918000977FE7CF79
:1003A00094B59F7794BDE5CF94B59F7DFBCF909199
:1003B00090009F7790939000DCCF909190009F7D6C
:1003C000F9CF90919000977FF5CF9091C0009F77E3
:1003D0009093C000CECF9091C0009F7DF9CF9091B7
:1003E000C200977F9093C200C4CF80E090E0089550
:1003F0000F931F93CF93DF9382E10E9489018C01B9
:1004000083E10E948901EC0184E10E94890120912D
:10041000F1013091F201012B21F121603093F201C1
:100420002093F1012091F1013091F201CD2BD9F00F
:1004300022603093F2012093F1012091F10130917B
:10044000F201892B91F024603093F2012093F101A5
:100450008091F1019091F201DF91CF911F910F9165
:1004600008952E7FDBCF2D7FE4CF2B7FEDCF0F9331
:100470001F93CF93DF9385E10E9489018C0186E170
:100480000E948901EC0187E10E9489012091EF011E
:100490003091F001012B21F121603093F001209384
:1004A000EF012091EF013091F001CD2BD9F02260C6
:1004B0003093F0012093EF012091EF013091F00192
:1004C000892B91F024603093F0012093EF0180910B
:1004D000EF019091F001DF91CF911F910F9108955D
:1004E0002E7FDBCF2D7FE4CF2B7FEDCFCF93DF931C
:1004F00090E0FC01E357FE4F249182599E4FFC018E
:1005000084918823C9F090E0880F991FFC01EB5D6E
:10051000FE4FA591B491FC01E05AFE4FC591D491D4
:1005200061110DC09FB7F8948C91209582238C9314
:100530008881282328839FBFDF91CF91089562305F
:1005400051F49FB7F8943C91822F809583238C932C
:10055000E8812E2BEFCF8FB7F894EC912E2B2C93B4
:100560008FBFEACF3FB7F8948091DD019091DE0113
:10057000A091DF01B091E00126B5A89B05C02F3FF7
:1005800019F00196A11DB11D3FBFBA2FA92F982FB9
:100590008827BC01CD01620F711D811D911D42E0B4
:1005A000660F771F881F991F4A95D1F708958F927C
:1005B0009F92AF92BF92CF92DF92EF92FF924B0148
:1005C0005C010E94B2026B017C010E94B2026C19B4
:1005D0007D098E099F09683E734081059105A8F346
:1005E00021E0821A9108A108B10888EEC80E83E0C4
:1005F000D81EE11CF11C81149104A104B10429F757
:10060000FF90EF90DF90CF90BF90AF909F908F9032
:1006100008952FB7F8946091D9017091DA01809113
:10062000DB019091DC012FBF08954F925F926F9292
:100630007F929F92AF92BF92CF92DF92EF92FF9202
:100640000F931F93CF93DF9300D01F92CDB7DEB7E8
:10065000D090C5028091C8029091C902A091CA02AF
:10066000B091CB02892B8A2B8B2BD9F00E94B2023E
:1006700000914302109144022091450230914602BC
:10068000601B710B820B930B0091C8021091C90281
:100690002091CA023091CB0260177107820793073D
:1006A000C8F20E94B20260934302709344028093A6
:1006B000450290934602E091D002F091D10230972A
:1006C00059F04091CC025091CD026091CE027091D0
:1006D000CF028D2D0995D82EE0904102F090420274
:1006E0004D2C512C712C612CE114F10409F459C0EA
:1006F000D7011C96CC901C978091C6029091C7029E
:100700008436910510F41C961C92D701ED91FC9152
:10071000A280B38019821A821B82DD2079F1F70151
:10072000369610E000E02191222319F19280992061
:1007300001F130E050E040E02F5F3F4F4F4F5F4FFF
:10074000C301B2010E9453119B01AC01892D90E0BD
:10075000B0E0A0E0BC01CD016F5F7F4F8F4F9F4F96
:100760000E945311A1E0B0E0AC0FBD1FA00FB11F5C
:100770008C930F5F1F4F03301105A9F609811A8171
:100780002B81F7014585568562817381C701F5018B
:100790000995D7011C96CC921C971496ED90FC906D
:1007A000A3CF80913F02909140028C010F5F1F4FB9
:1007B0001093400200933F024997B4F10E9409034D
:1007C000C0903B02D0903C02E0903D02F0903E028F
:1007D0009B01AC012C193D094E095F0921F421E070
:1007E00030E040E050E088EE93E0089FB001099FC0
:1007F000700D189F700D1124072E000C880B990B9B
:100800000E9477113093C7022093C60210924002D3
:1008100010923F020E94090360933B0270933C02D6
:1008200080933D0290933E020F900F900F90DF91C6
:10083000CF911F910F91FF90EF90DF90CF90BF90DD
:10084000AF909F907F906F905F904F900895862F0C
:10085000642F0C94760280E991E008954091B601EE
:100860005091B7012091B4013091B501421753075F
:10087000B4F49091E8009570E1F39091E80092FD56
:1008800019C08093F1008091B6019091B701019653
:100890008F739927892B19F48EEF8093E80080914C
:1008A000B6019091B70101969093B7018093B6017C
:1008B00081E0089580E00895EF92FF920F931F93D7
:1008C000CF93DF93F82E192FE62E042F81E0860FA9
:1008D000880F0E942E0483E00E942E04CF2DD12F7A
:1008E000EC0EFD2EF11CCE15DF05B9F007FF13C08D
:1008F000FE0184910E942E04182F80E00E942E0495
:10090000812321968111EFCFDF91CF911F910F911C
:10091000FF90EF9008958881EDCF81E0F5CFDF92D1
:10092000EF92FF920F931F93CF93DF93D82E8A01FC
:10093000EB017B01E40EF51ECE15DF0559F0D7FE65
:1009400012C0FE0184910E942E0421968111F4CFE1
:100950000FEF1FEFC801DF91CF911F910F91FF9013
:10096000EF90DF9008958881EECF0F931F93CF9380
:10097000DF931F92CDB7DEB782E0898342E450E077
:100980006CEA70E080E80E948F040E947501DC012F
:1009900012960D911C910115110589F0D801ED9168
:1009A000FC910280F381E02DBE016F5F7F4FC80193
:1009B000099597FD04C0F80100851185ECCF898168
:1009C0000F90DF91CF911F910F9108958F929F9279
:1009D000AF92BF92CF92DF92EF92FF920F931F934D
:1009E000CF93DF936C017B018A0180910B018823F7
:1009F00009F45BC08091EE01882309F456C0809110
:100A0000BA0180FF05C08091E00082608093E00021
:100A1000E801B12C8AEFA82E93E0892E2AE3922ECA
:100A2000209711F4BB20D9F10E94640181110AC002
:100A3000AA94AA20D1F161E070E080E090E00E94E9
:100A4000D702EECF8C171D0611F00CF08C2F9FB73C
:100A5000F8948092E9002091E80025FD02C09FBF34
:100A6000DFCF282F30E0C21BD30BF701815020F0DD
:100A700041914093F100FACFE20EF31EBB2021F02A
:100A80009092E800B12CEBCF8091E80085FDE7CF94
:100A90009092E800BB24B394209709F3F3CF84E647
:100AA0008093B901101611063CF081E090E0F60148
:100AB0009383828310E000E0C801DF91CF911F9102
:100AC0000F91FF90EF90DF90CF90BF90AF909F90ED
:100AD0008F900895CF93DF931F92CDB7DEB76983D0
:100AE000DC01ED91FC910280F381E02D41E050E0CA
:100AF000BE016F5F7F4F09950F90DF91CF910895F1
:100B000083E08093E9008091F200882319F08AE362
:100B10008093E80008950E94640190E00895FC012C
:100B20008485958597FD05C02FEF3FEF3587248796
:100B300008950C943A01CF93DF93EC018C859D8549
:100B400097FF04C00E943A019D878C878C859D8504
:100B5000DF91CF910895FC018485958597FD0BC0A9
:100B60009FB7F89482E08093E9008091F2009FBFE4
:100B700090E0019608959FB7F89482E08093E90091
:100B80008091F2009FBF90E008950F931F93CF9341
:100B9000DF932091B3012F5F322F37703093B30171
:100BA00020FF2BC020E831FD2064347009F0206262
:100BB000205FFC01EC01239600E011E064856623D0
:100BC00029F070E0C8010E9463116F5F6187322FC6
:100BD000369F030E30E0311D1124311110C01682F2
:100BE000662311F0615061873196EC17FD0731F7EC
:100BF000DF91CF911F910F91089520E0D4CF315014
:100C00003683EECF4F925F927F928F929F92AF92F8
:100C1000BF92CF92DF92EF92FF920F931F93CF93E9
:100C2000DF932C01EB010E94B202F201278530898B
:100C3000621B730B6A307105B0F3F8948A819B8153
:100C4000181619060CF0CDC1E881F98165B1862E20
:100C5000689487F835B13F7735B9DA848F812D2DC7
:100C6000281B822F2F834F85042E000C550BAA8141
:100C7000BB817D85FC84EE847F5FF394E3949E8149
:100C80009884B984AB841181C12C6C2D0C2D2C2D32
:100C90002181112788942111280F08F42FEF8195C5
:100CA000889470FD120F1795889471FD120F179597
:100CB000889472FD120F1795889473FD120F179583
:100CC000889474FD120F1795889475FD120F17956F
:100CD000889476FD120F1795889477FD120F17955B
:100CE0008894622F7111612F8D0D162F002C85B8FD
:100CF00000C017FF35B920816627889400C000C066
:100D0000002C35B92111290F00C0002C85B800C076
:100D100016FF35B908F42FEF9195889400C000C0F4
:100D2000002C35B9F0FC620F00C0002C85B800C063
:100D300015FF35B967958894F1FC620F00C000C0BB
:100D4000002C35B96795889400C0002C85B800C088
:100D500014FF35B9F2FC620F6795889400C000C09B
:100D6000002C35B9F3FC620F00C0002C85B800C020
:100D700013FF35B967958894F4FC620F00C000C07A
:100D8000002C35B96795889400C0002C85B800C048
:100D900012FF35B9F5FC620F6795889400C000C05A
:100DA000002C35B9F6FC620F00C0002C85B800C0DD
:100DB00011FF35B967958894F7FC620F00C000C039
:100DC000002C35B96795889400C0002C85B800C008
:100DD00010FF35B9122FF110162F9B0D00C000C067
:100DE000002C35B900C000C0002C85B800C017FF2A
:100DF00035B922816627889400C000C0002C35B91F
:100E00002111290D00C0002C85B800C016FF35B98E
:100E100008F42FEFE40FF51F00C000C0002C35B917
:100E2000E0FC620F00C0002C85B800C015FF35B98A
:100E300067958894E1FC620F00C000C0002C35B9B2
:100E40006795889400C0002C85B800C014FF35B9A0
:100E5000E2FC620F6795889400C000C0002C35B991
:100E6000E3FC620F00C0002C85B800C013FF35B949
:100E700067958894E4FC620F00C000C0002C35B96F
:100E80006795889400C0002C85B800C012FF35B962
:100E9000E5FC620F6795889400C000C0002C35B94E
:100EA000E6FC620F00C0002C85B800C011FF35B908
:100EB00067958894E7FC620F00C000C0002C35B92C
:100EC0006795889400C0002C85B800C010FF35B924
:100ED000122FE110162F919400C000C0002C35B9DC
:100EE0009A0C00C000C085B800C017FF35B9218139
:100EF0006627889400C000C0002C35B92111280F46
:100F000000C0002C85B800C016FF35B908F42FEFDB
:100F10008195889400C000C0002C35B970FD620F27
:100F200000C0002C85B800C015FF35B967958894BE
:100F300071FD620F00C000C0002C35B96795889420
:100F400000C0002C85B800C014FF35B972FD620FD7
:100F50006795889400C000C0002C35B973FD620FFE
:100F600000C0002C85B800C013FF35B96795889480
:100F700074FD620F00C000C0002C35B967958894DD
:100F800000C0002C85B800C012FF35B975FD620F96
:100F90006795889400C000C0002C35B976FD620FBB
:100FA00000C0002C85B800C011FF35B96795889442
:100FB00077FD620F00C000C0002C35B9679588949A
:100FC00000C0002C85B800C010FF35B9122F711178
:100FD000162F8D0D00C000C0002C35B9119709F0F7
:100FE00086CE4A815B8120EE31E0DA010E949F11BA
:100FF000DC01CB01F4E0B695A79597958795FA9516
:10100000D1F730E020E0B901EAE94E9F040E611DFE
:101010005E9F600D711D1124650F711D860F971F56
:10102000A11DB11D893E43E09407A105B10508F457
:1010300034C0885E9340A109B10942E0B695A795F6
:10104000979587954A95D1F747E0849F080E211D13
:10105000949F200D311D1124290F311D6091B20183
:1010600070E0860F971F820F931F4091D901509116
:10107000DA016091DB017091DC01292F3327420FE7
:10108000531F611D711D4093D9015093DA01609384
:10109000DB017093DC018093B20178940E94B2026C
:1010A000F201708B6787DF91CF911F910F91FF90B5
:1010B000EF90DF90CF90BF90AF909F908F907F90F8
:1010C0005F904F90089581E090E00895279A0895E9
:1010D0006F927F928F92CF92DF92EF92FF920F9357
:1010E0001F93CF93DF93CDB7DEB762970FB6F89417
:1010F000DEBF0FBECDBF6C017A013801822EDC014C
:101100001C962C91CA0157FF04C088279927841B7D
:10111000950B7A8369839C838B839E838D836D86F5
:101120007E868F86213049F5CE0101960E94C50545
:1011300083E0888B1A8A198AF7FE02C08DEF888BAC
:10114000D601ED91FC910684F785E02DBE016F5F1D
:101150007F4FC601099562960FB6F894DEBF0FBEA9
:10116000CDBFDF91CF911F910F91FF90EF90DF9056
:10117000CF908F907F906F9008951C861B861A8663
:10118000198618861F82D4CFEF92FF920F931F9378
:10119000CF93DF93CDB7DEB762970FB6F894DEBF7B
:1011A0000FBECDBF7C01DC011C968C917A836983D4
:1011B0005C834B835E834D830D871E872F87813031
:1011C000F9F4CE0101960E94C505188A1A8A198A77
:1011D000D701ED91FC910684F785E02DBE016F5F8C
:1011E0007F4FC701099562960FB6F894DEBF0FBE18
:1011F000CDBFDF91CF911F910F91FF90EF90089598
:101200001C861B861A86198618861F82DECF0F93CE
:101210001F93CF93DF9300D01F92CDB7DEB7AB0102
:1012200019821A821B82DC01ED91FC910190F08100
:10123000E02D00E010E020E0BE016F5F7F4F0995D8
:101240000F900F900F90DF91CF911F910F91089504
:10125000FC0181890E94890121E0892B09F420E0A9
:10126000822F08950F931F93CF93DF93EC01888112
:1012700080FF17C00E94090309811A812B813C81DC
:10128000601B710B820B930B0D811E812F813885A2
:10129000601771078207930758F09EEF88818923B2
:1012A000888388818170DF91CF911F910F9108957C
:1012B0009FEFF4CF2F923F924F925F926F927F9267
:1012C0008F929F92AF92BF92CF92DF92EF92FF9256
:1012D0000F931F93CF93DF93CDB7DEB729970FB648
:1012E000F894DEBF0FBECDBF898749835A836B83D5
:1012F0007C830091410210914202BDE78B2E912C1C
:10130000A12CB12C0115110509F46BC0D801ED9188
:10131000FC910084F185E02DC80109951C01D801DC
:101320001296ED91FC91C12CD12C7601412C512CBF
:10133000320120E030E0A901009791F06081260F92
:10134000311D411D511D6181460E511C611C711CD6
:101350006281C60ED11CE11CF11C01973396ECCFC3
:10136000A0E5B0E00E94A6116D837E838F839887ED
:10137000A7E3B0E0A30192010E94A6112B013C015A
:10138000ABE4B0E0A70196010E94A6112D813E8139
:101390004F815885C32ED42EE52EFF2445E0429D73
:1013A0009001439D300D1124C20ED31EE11CF11C8F
:1013B0008C0C9D1CAE1CBF1C452C562C672C772416
:1013C000840C951CA61CB71C472F582F692F772714
:1013D000840E951EA61EB71ED80114960D911C9161
:1013E00091CFB985CB2ED12CF12CE12CA701960100
:1013F000C501B4010E945311872E982EA92EBB243B
:1014000029813A814B815C8182169306A406B50638
:1014100068F0A701960169817A818B819C810E9485
:101420005311A50194010E94771129878985299676
:101430000FB6F894DEBF0FBECDBFDF91CF911F91E5
:101440000F91FF90EF90DF90CF90BF90AF909F9063
:101450008F907F906F905F904F903F902F90089566
:10146000FC01A281B3819C9186812681982381E031
:10147000921380E00895FC0186810280F381E02DC3
:1014800090818095892380830895FC019681028054
:10149000F381E02D8081892B80830895FC0185856F
:1014A0009685089590E080E00895FC010190002069
:1014B000E9F73197AF01481B590BBC0187E492E073
:1014C0000C94E604CF93DF930E94550AEC0183E568
:1014D00091E00E94550A8C0F9D1FDF91CF910895D6
:1014E0008F929F92AF92BF92CF92DF92EF92FF9234
:1014F0000F931F93CF93DF93CDB7DEB7A1970FB6AE
:10150000F894DEBF0FBECDBF6C01990FEE08FF0847
:10151000F7FE47C06DE287E492E00E946A058C0105
:1015200022273327A9012C193D094E095F0919A269
:10153000CE0181967C019AE0892E912CA12CB12CB0
:10154000CA01B901A50194010E947711605DF701FC
:1015500062937F01211531054105510589F790E01E
:1015600080E0309719F0CF010E94550A080F191F2B
:1015700083E591E00E94550A800F911FA1960FB656
:10158000F894DEBF0FBECDBFDF91CF911F910F91B9
:10159000FF90EF90DF90CF90BF90AF909F908F9093
:1015A0000895A701960119A28E010F5D1F4F8AE0D1
:1015B000C82ED12CE12CF12CCA01B901A70196014A
:1015C0000E947711605DF80162938F01211531054A
:1015D0004105510589F7309729F0CF010E94550A3E
:1015E0008C01C6CF10E000E0C3CF0E94D4111F923F
:1015F0000F920FB60F9211242F933F938F939F93C7
:10160000AF93BF938091D9019091DA01A091DB0152
:10161000B091DC013091D80123E0230F2D3758F52C
:101620000196A11DB11D2093D8018093D9019093FB
:10163000DA01A093DB01B093DC018091DD01909190
:10164000DE01A091DF01B091E0010196A11DB11D65
:101650008093DD019093DE01A093DF01B093E00160
:10166000BF91AF919F918F913F912F910F900FBE9E
:101670000F901F90189526E8230F0296A11DB11D0B
:10168000D2CF1F920F920FB60F9211248F939F9378
:101690008091E1009091E100937F9093E10083FFBE
:1016A0000FC01092E90091E09093EB001092EC00D3
:1016B00092E39093ED001092EE0198E09093F00089
:1016C00082FF1CC093E09093E9009091F20099236F
:1016D00019F09AE39093E8009091B901992329F0C9
:1016E0009091B90191509093B9019091ED01992396
:1016F00029F09091ED0191509093ED0184FF18C075
:101700008091E2008E7E81608093E2008091E10012
:101710008F7E8093E1008091BA018E7E80618093FC
:10172000BA019F918F910F900FBE0F901F90189547
:1017300080FFF7CF8091E2008E7E80618093E2008F
:101740008091E1008E7E8093E1008091BA018E7ECF
:101750008160E5CF1F920F920FB60F921124CF92A6
:10176000DF92EF92FF920F931F932F933F934F932C
:101770005F936F937F938F939F93AF93BF93EF93F9
:10178000FF93CF93DF93CDB7DEB76C97DEBFCDBFAE
:101790001092E9008091E80083FF2FC089E0FE01EC
:1017A0007596EE2EDF2E815029F09091F1009083F6
:1017B0003196F9CF84E68093ED0182EF8093E800C3
:1017C0008D8987FF39C09091E80090FFFCCF982F5A
:1017D000907609F033C19E894F89588D2F89F88CF6
:1017E000911131C0803861F58091BB018093F10087
:1017F0001092F1008EEF8093E8006C960FB6F8948B
:10180000DEBF0FBECDBFDF91CF91FF91EF91BF91B2
:10181000AF919F918F917F916F915F914F913F9188
:101820002F911F910F91FF90EF90DF90CF900F902D
:101830000FBE0F901F9018959EEF9093E800C7CFB2
:101840001092F100D5CF913059F48111D3CF4130AE
:10185000510581F68091BB018D7F8093BB01CACF7A
:10186000933049F48111C6CF4130510519F680916A
:10187000BB018260F2CF953041F48091E80080FF97
:10188000FCCF20682093E300B5CF963009F0A8C0C4
:101890000B8D1C8D22E01092E9001092B70110927E
:1018A000B601F2122EC01092B5011092B4010E943E
:1018B000B5041F8299E09983FA8291E09E8390EAB1
:1018C00098879AEF99872091B6013091B701275FE9
:1018D0003F4F3C832B838D831092E9001092B70118
:1018E0001092B6011093B5010093B40149E050E0A5
:1018F000BE016F5F7F4F80E00E948F040E94B5049D
:1019000079CF1093B5010093B4010E947501DC01F9
:1019100012960D911C910115110509F457C1D801BA
:10192000ED91FC910480F581E02D6E2D7D2DC80197
:101930000995009709F045C1F80100851185EBCFA5
:10194000F3E0FF120EC08F89882309F440C0823073
:1019500061F440E867E18DE091E00E945C04811150
:1019600049CF81E28093EB0048CF813029F440E8F1
:1019700068E084E091E0F1CF833099F70E9475012F
:10198000DC011296ED90FC908E010F5F1F4F6801F5
:10199000E114F10479F0D701ED91FC910680F78113
:1019A000E02DB801C7010995080F111DF701E0846A
:1019B000F184EECFD8011C92F60101900020E9F7E6
:1019C0003197BF016C197D0940E0C601C6CF6EEEAC
:1019D00070E0FB01449150E080E80E948F040ACF40
:1019E000973009F4BECF983021F481E08093F10064
:1019F00001CF993009F0FECE837009F0B2CFEDE04F
:101A0000F1E081E031E096E32191222371F08093AF
:101A1000E9003093EB00DF0111972C912093EC004B
:101A20009093ED008F5F873079F78EE78093EA001F
:101A30001092EA008F898093EE01DCCE8B8D9C8D15
:101A40001092E9001092B7011092B6019093B5017F
:101A50008093B401898D81119AC08E899D89913AB4
:101A600049F4813209F07DCF47E050E064E071E055
:101A700080E0B3CF913209F074CF833269F48F895B
:101A8000988DB0E0A0E08093000190930101A093B5
:101A90000201B0930301AECE8032A9F48091E80038
:101AA00082FFFCCF88E0E4E0F1E0815029F09091E2
:101AB000F10090833196F9CF84E68093ED018BEFAE
:101AC0008093E80097CE823209F094CE8F8980937C
:101AD0000B01EEEFFFE7859194918B3F9C4D51F107
:101AE000E0E0F8E08091040190910501A0910601E9
:101AF000B0910701803B9440A105B105F1F48091BC
:101B00000B0180FD1AC0EE3F8AE0F80789F587E7F0
:101B100097E791838083809160008093B80188E18A
:101B20009BE00FB6F894A895809360000FBE909349
:101B3000600060CEEEEFFAE0D5CF808191818737EB
:101B4000974709F057CEA8958091600088618093EF
:101B500060008091B80180936000EE3F2AE0F207B8
:101B600089F08091FE0A9091FF0A9183808342CE92
:101B7000808191818737980751F29093FF0A809373
:101B8000FE0AC5CF1092FF0A1092FE0A33CE0E94C1
:101B90007501DC0112960D911C910115110509F4D6
:101BA000E0CED801ED91FC910190F081E02D6E2DF9
:101BB0007D2DC801099581111DCEF8010085118583
:101BC000ECCF181619060CF415CECBCEF1E0FF12AF
:101BD000B7CE62EF70E0FDCEE7E4F2E0138212824E
:101BE00088EE93E0A0E0B0E084839583A683B7837A
:101BF0008DE391E0918380838FEF9FEF95878487BA
:101C0000ECEBF2E0108211821282138214821582B0
:101C1000168217821086E3EBF2E0108211821282A4
:101C2000138214821582168217821086EAEAF2E085
:101C300010821182128213821482158216821782F8
:101C40001086E7E9F2E012821382148215828AE09C
:101C500090E0978386831086118A8FE491E09183C8
:101C6000808381E0828BE5ECF2E08FEF808312824B
:101C70001182148613868FEF9FEFDC018783908794
:101C8000A187B2870895CF93DF9300D01F92CDB77D
:101C9000DEB7789484B5826084BD84B5816084BDEC
:101CA00085B5826085BD85B5816085BD80916E00FA
:101CB000816080936E00109281008091810082602B
:101CC0008093810080918100816080938100809168
:101CD0008000816080938000809191008260809379
:101CE000910080919100816080939100809190009B
:101CF0008160809390008091C10084608093C100D6
:101D00008091C10082608093C1008091C100816098
:101D10008093C1008091C30081608093C300809153
:101D2000C00082608093C0008091C2008160809377
:101D3000C20080917A00846080937A0080917A005A
:101D4000826080937A0080917A00816080937A002B
:101D500080917A00806880937A001092EE01109250
:101D6000BB011092BA018091D70081608093D700A7
:101D700080EA8093D80089B5806189BD89B5826089
:101D800089BD09B400FEFDCF61E070E080E090E025
:101D90000E94D7028091D8008F7C80618093D80008
:101DA0008091E000807F8093E0008091E1008E7E52
:101DB0008093E1008DE08093E2008FEF9FEF90939E
:101DC0005402809353028091CF01811145C010923B
:101DD000C1011092C0018FEF8093C4018093C501AF
:101DE0008093C6018093C7018093C8018093C90185
:101DF00081E08093CA011092CC011092CB01109225
:101E0000C3011092C2018091410290914202892B3C
:101E100031F48EEB91E09093420280934102E09185
:101E2000BC01F091BD01309721F08EEB91E09583DC
:101E300084838EEB91E09093BD018093BC0110925E
:101E4000CE011092CD0189E291E09093BF01809381
:101E5000BE0181E08093CF01279A83EF91E09093B8
:101E6000C1018093C00188E190E09093CC01809300
:101E7000CB018091C8029091C902A091CA02B09191
:101E8000CB02843C29E09207A105B10520F484EC43
:101E900099E0A0E0B0E08093C8029093C902A093BB
:101EA000CA02B093CB028FEF8093C40180EB809382
:101EB000C50180EF8093C6018AE599E09093D10235
:101EC0008093D0028CEE9CE2A0E0B0E08093CC0244
:101ED0009093CD02A093CE02B093CF0262E081E056
:101EE0000E94760281E08093A80210929F0287E907
:101EF00092E00E942809882329F080919F02836044
:101F000080939F020E9409036093990270939A0242
:101F100080939B0290939C021092A90260E082E160
:101F20000E94760260E083E10E94760260E084E134
:101F30000E94760260E085E10E94760260E086E120
:101F40000E94760260E087E10E94760261E08AE00A
:101F50000E9476021FEF19831A821B82CE0101961E
:101F60000E9401010E94150368EE73E080E090E09A
:101F70000E94D702198280E88A831B82CE010196D3
:101F80000E9401010E94150368EE73E080E090E07A
:101F90000E94D70219821A821B83CE0101960E94E9
:101FA00001010E94150368EE73E080E090E00E945A
:101FB000D70219821A821B82CE0101960E9401016A
:101FC0000E94150320E0622E20E0722E38EEC32E10
:101FD00033E0D32EE12CF12C44E6842E912CA12C5D
:101FE000B12C8AEA92E00E94320981114CC086E548
:101FF00091E00E94620A0E94F8018C019093F20124
:102000008093F1018DE691E00E94550AC8010E947B
:10201000700A86E591E00E94620A0E9437028C01F4
:102020009093F0018093EF018DE791E00E94550AB3
:10203000C8010E94700A86E591E00E94620A8DE85C
:1020400091E00E94550A80919F0281709091A902AF
:10205000981362C082EA91E00E94620AC092AF02C5
:10206000D092B002E092B102F092B2020E94090353
:102070006093AB027093AC028093AD029093AE027A
:1020800083E08093AA0280919F028B7F80939F02BE
:1020900087E992E00E942809182F80919F02869577
:1020A00081701817E1F10E940903609399027093FF
:1020B0009A0280939B0290939C0280919F0292E0EF
:1020C000892780939F0280919F0282FFD2C08170F6
:1020D0009091A9029813CDC08CEB92E00E94320936
:1020E000282E8111C6C00E94F8018C019093F20144
:1020F0008093F1010E9437029093F0018093EF01E9
:102100008530910509F062C0222423940530110521
:1021100009F465C0212C63C08EE991E09DCF0E9437
:1021200009032091990230919A0240919B025091AB
:102130009C021B012C01221A330A440A550AB201DF
:10214000A10180919D0290919E02B0E0A0E048170D
:1021500059076A077B0708F4B6CF80919F02817008
:10216000181709F4B0CF0E94090360939902709385
:102170009A0280939B0290939C0280919F02332449
:1021800033948325846080939F020E940903009109
:10219000A0021091A1022091A2023091A302601B23
:1021A000710B820B930B6093A4027093A502809332
:1021B000A6029093A7020E9409036093A002709365
:1021C000A1028093A2029093A3027DCF8630910555
:1021D00079F4222423940230110509F09BCF823038
:1021E000910579F40130110521F52224239421C0B1
:1021F0008730910561F4222423940630110509F0FB
:10220000212C0197B1F40430110599F4EECF8430FC
:10221000910539F4222423940330110551F0212C27
:1022200008C083309105D9F6222423940730110584
:10223000B1F78AEA91E00E94550A822D90E00E944F
:10224000700A2092D7018092C1029092C202A0929D
:10225000C302B092C4020E9409036093BD0270934E
:10226000BE028093BF029093C00293E0492E409239
:10227000BC028091D701882391F0198280E8582E02
:102280005A821B82CE0101960E9401010E94150311
:102290006114710409F4A5CE0E940000A2CE2FEFB4
:1022A00029831A82EECFDB018F939F930E94A611A0
:1022B000BF91AF91A29F800D911DA39F900DB29FE2
:1022C000900D1124089597FB072E16F4009407D063
:1022D00077FD09D00E94B11107FC05D03EF490951E
:1022E00081959F4F0895709561957F4F0895A1E264
:1022F0001A2EAA1BBB1BFD010DC0AA1FBB1FEE1F80
:10230000FF1FA217B307E407F50720F0A21BB30BCA
:10231000E40BF50B661F771F881F991F1A9469F746
:1023200060957095809590959B01AC01BD01CF01A2
:102330000895EE0FFF1F0590F491E02D09940E947F
:10234000C511B7FF0895821B930B08950E94C51114
:10235000A59F900DB49F900DA49F800D911D1124F9
:102360000895AA1BBB1B51E107C0AA1FBB1FA617DC
:10237000B70710F0A61BB70B881F991F5A95A9F72E
:1023800080959095BC01CD010895A29FB001B39FA7
:10239000C001A39F700D811D1124911DB29F700D6E
:1023A000811D1124911D089581E090E0F8940C9412
:0623B000D911F894FFCFE3
:1023B600FFFFFFFF00E100000000000000C1808178
:1023C60000000000000000F50AF50AF50A07094EAC
:1023D6000A6308520A00000000C408680866080775
:1023E600094E0A63082B040206000000006A05E68F
:1023F600048B058005AB058F059B050000000028B2
:102406000927040D0A002A2A2A2A2A2A2A2A2A2AD7
:102416002A2A2A2A2A2A2A2A2A2A2A2A00536365A3
:102426006E7420456E636F6465723A2000496D6173
:10243600676520456E636F6465723A200042757465
:10244600746F6E20507265737365643A20004E6F28
:10245600742050726573736564006D617463683AC5
:02246600200054
:00000001FF
