:100000000C94D7000C94FF000C94FF000C94FF009C
:100010000C94FF000C94FF000C94FF000C94FF0064
:100020000C94FF000C94FF000C94770B0C94E00BE5
:100030000C94FF000C94FF000C94FF000C94FF0044
:100040000C94FF000C94FF000C94FF000C94FF0034
:100050000C94FF000C94FF000C94FF000C942D0BEB
:100060000C94FF000C94FF000C94FF000C94FF0014
:100070000C94FF000C94FF000C94FF000C94FF0004
:100080000C94FF000C94FF000C94FF000C94FF00F4
:100090000C94FF000C94FF000C94FF000C94FF00E4
:1000A0000C94FF000C94FF000C94FF00080B00025E
:1000B0000202000009040000010202000005240001
:1000C0001001052401010104240206052406000193
:1000D0000705810310004009040100020A00000026
:1000E00007050202400000070583024000000403E8
:1000F000090412010002EF0201409A230E000001E0
:100100000102030141646166727569740049747388
:100110007942697473792033327534203556203131
:10012000364D487A0000000000240027002A002DE8
:100130000030000000000200090F0000030401006D
:100140000C000000000000000000000000000000A3
:100150000000000000002300260029002C002F00D2
:1001600000000000250028002B002E0031000404B0
:100170000404040304050202020204030202020250
:100180000606060606060404020202040404080227
:10019000011040804010204080408008020401800F
:1001A000402010020110801020404020220E112417
:1001B0001FBECFEFDAE0DEBFCDBF11E0A0E0B1E0BF
:1001C000ECE3F4E202C005900D92A63CB107D9F72A
:1001D00022E0A6ECB1E001C01D92AD3DB207E1F70F
:1001E00010E0C7EDD0E004C02197FE010E94DC11B1
:1001F000C63DD107C9F70E946E0E0C941C120C94D8
:100200000000E7E0F2E0DC012D913D914C9121935B
:1002100031934193B2E0EF34FB07A9F70895DC0175
:1002200017962C91179730E0F901E357FE4FE491B0
:100230001696EC93169722593E4FF9018491E82FB8
:10024000F0E0EE0FFF1FE05AFE4F85919491139658
:100250009C938E931297F9012491E22FF0E0EE0F18
:10026000FF1FEE5AFE4F8591949115969C938E93A5
:100270001497089590910602911103C08FEF9FEF9C
:1002800008954FB7F89492E09093E9009091F200AE
:10029000292F30E01216130614F421E030E0232B4E
:1002A00029F084E6809305028091F100992339F0CA
:1002B0002091F200211103C02BE62093E8004FBFEC
:1002C0009923E1F290E008952FB7F89483E08093AA
:1002D000E9009091E800892F807295FF04C0909109
:1002E000F20080E4891B2FBF08958091FD018111E8
:1002F0000DC082E08093F90184E08093FA011092AE
:10030000FC011092FB0181E08093FD0189EF91E0F7
:10031000089581508F3008F047C0E82FF0E0ED5687
:10032000FE4F0C94DC11B001B401A201A801AC0194
:10033000D401D401D401B701BD01C101C501CB0174
:10034000D401CF01809180008F7780938000089541
:10035000809180008F7DF9CF80918000877FF5CFDD
:1003600084B58F7784BD089584B58F7DFBCF809150
:1003700090008F77809390000895809190008F7DFA
:10038000F9CF80919000877FF5CF8091C0008F7763
:100390008093C00008958091C0008F7DF9CF809137
:1003A000C200877F8093C2000895CF93DF93282FE8
:1003B00030E0F901ED5CFE4F8491F901E357FE4F07
:1003C000D491F901E259FE4FC491CC23A1F08111DF
:1003D0000E948901EC2FF0E0EE0FFF1FEE5AFE4F56
:1003E000A591B491EC91ED2381E090E009F480E0D7
:1003F000DF91CF91089580E090E0FACFCF93DF9323
:1004000090E0FC01E357FE4F249182599E4FFC017E
:1004100084918823C9F090E0880F991FFC01EB5D5F
:10042000FE4FA591B491FC01E05AFE4FC591D491C5
:1004300061110DC09FB7F8948C91209582238C9305
:100440008881282328839FBFDF91CF910895623050
:1004500051F49FB7F8943C91822F809583238C931D
:10046000E8812E2BEFCF8FB7F894EC912E2B2C93A5
:100470008FBFEACF3FB7F8948091F5019091F601D4
:10048000A091F701B091F80126B5A89B05C02F3FB8
:1004900019F00196A11DB11D3FBFBA2FA92F982FAA
:1004A0008827BC01CD01620F711D811D911D42E0A5
:1004B000660F771F881F991F4A95D1F708958F926D
:1004C0009F92AF92BF92CF92DF92EF92FF924B0139
:1004D0005C010E943A026B017C010E943A026C1995
:1004E0007D098E099F09683E734081059105A8F337
:1004F00021E0821A9108A108B10888EEC80E83E0B5
:10050000D81EE11CF11C81149104A104B10429F747
:10051000FF90EF90DF90CF90BF90AF909F908F9023
:1005200008952FB7F8946091F1017091F2018091D4
:10053000F3019091F4012FBF08954F925F926F9253
:100540007F929F92AF92BF92CF92DF92EF92FF92F3
:100550000F931F93CF93DF9300D01F92CDB7DEB7D9
:10056000D090D0028091D3029091D402A091D50274
:10057000B091D602892B8A2B8B2BD9F00E943A029C
:1005800000915702109158022091590230915A025D
:10059000601B710B820B930B0091D3021091D4025C
:1005A0002091D5023091D602601771078207930718
:1005B000C8F20E943A0260935702709358028093E7
:1005C000590290935A02E091DB02F091DC023097DD
:1005D00059F04091D7025091D8026091D9027091A0
:1005E000DA028D2D0995D82EE0905502F090560232
:1005F0004D2C512C712C612CE114F10409F459C0DB
:10060000D7011C96CC901C978091D1029091D20278
:100610008436910510F41C961C92D701ED91FC9143
:10062000A280B38019821A821B82DD2079F1F70142
:10063000369610E000E02191222319F19280992052
:1006400001F130E050E040E02F5F3F4F4F4F5F4FF0
:10065000C301B2010E9496119B01AC01892D90E06B
:10066000B0E0A0E0BC01CD016F5F7F4F8F4F9F4F87
:100670000E949611A1E0B0E0AC0FBD1FA00FB11F0A
:100680008C930F5F1F4F03301105A9F609811A8162
:100690002B81F7014585568562817381C701F5017C
:1006A0000995D7011C96CC921C971496ED90FC905E
:1006B000A3CF80915302909154028C010F5F1F4F82
:1006C00010935402009353024997B4F10E9491028F
:1006D000C0904F02D0905002E0905102F090520230
:1006E0009B01AC012C193D094E095F0921F421E061
:1006F00030E040E050E088EE93E0089FB001099FB1
:10070000700D189F700D1124072E000C880B990B8B
:100710000E94BA113093D2022093D1021092540257
:10072000109253020E94910260934F027093500204
:1007300080935102909352020F900F900F90DF918F
:10074000CF911F910F91FF90EF90DF90CF90BF90CE
:10075000AF909F907F906F905F904F900895862FFD
:10076000642F0C94FE0180E991E008954091CA0144
:100770005091CB012091C8013091C9014217530714
:10078000B4F49091E8009570E1F39091E80092FD47
:1007900019C08093F1008091CA019091CB0101961C
:1007A0008F739927892B19F48EEF8093E80080913D
:1007B000CA019091CB0101969093CB018093CA011D
:1007C00081E0089580E00895EF92FF920F931F93C8
:1007D000CF93DF93F82E192FE62E042F81E0860F9A
:1007E000880F0E94B60383E00E94B603CF2DD12F5D
:1007F000EC0EFD2EF11CCE15DF05B9F007FF13C07E
:10080000FE0184910E94B603182F80E00E94B60377
:10081000812321968111EFCFDF91CF911F910F910D
:10082000FF90EF9008958881EDCF81E0F5CFDF92C2
:10083000EF92FF920F931F93CF93DF93D82E8A01ED
:10084000EB017B01E40EF51ECE15DF0559F0D7FE56
:1008500012C0FE0184910E94B60321968111F4CF4B
:100860000FEF1FEFC801DF91CF911F910F91FF9004
:10087000EF90DF9008958881EECF0F931F93CF9371
:10088000DF931F92CDB7DEB782E0898342E450E068
:100890006CEA70E080E80E9417040E947501DC0198
:1008A00012960D911C910115110589F0D801ED9159
:1008B000FC910280F381E02DBE016F5F7F4FC80184
:1008C000099597FD04C0F80100851185ECCF898159
:1008D0000F90DF91CF911F910F9108958F929F926A
:1008E000AF92BF92CF92DF92EF92FF920F931F933E
:1008F000CF93DF936C017B018A0180910B018823E8
:1009000009F45BC080910602882309F456C08091E7
:10091000CE0180FF05C08091E00082608093E000FE
:10092000E801B12C8AEFA82E93E0892E2AE3922EBB
:10093000209711F4BB20D9F10E94640181110AC0F3
:10094000AA94AA20D1F161E070E080E090E00E94DA
:100950005F02EECF8C171D0611F00CF08C2F9FB7A5
:10096000F8948092E9002091E80025FD02C09FBF25
:10097000DFCF282F30E0C21BD30BF701815020F0CE
:1009800041914093F100FACFE20EF31EBB2021F01B
:100990009092E800B12CEBCF8091E80085FDE7CF85
:1009A0009092E800BB24B394209709F3F3CF84E638
:1009B0008093CD01101611063CF081E090E0F60125
:1009C0009383828310E000E0C801DF91CF911F91F3
:1009D0000F91FF90EF90DF90CF90BF90AF909F90DE
:1009E0008F900895CF93DF931F92CDB7DEB76983C1
:1009F000DC01ED91FC910280F381E02D41E050E0BB
:100A0000BE016F5F7F4F09950F90DF91CF910895E1
:100A100083E08093E9008091F200882319F08AE353
:100A20008093E80008950E94640190E00895FC011D
:100A30008485958597FD05C02FEF3FEF3587248787
:100A400008950C943A01CF93DF93EC018C859D853A
:100A500097FF04C00E943A019D878C878C859D85F5
:100A6000DF91CF910895FC018485958597FD0BC09A
:100A70009FB7F89482E08093E9008091F2009FBFD5
:100A800090E0019608959FB7F89482E08093E90082
:100A90008091F2009FBF90E008950F931F93CF9332
:100AA000DF932091C7012F5F322F37703093C7013A
:100AB00020FF2BC020E831FD2064347009F0206253
:100AC000205FFC01EC01239600E011E064856623C1
:100AD00029F070E0C8010E94A6116F5F6187322F74
:100AE000369F030E30E0311D1124311110C01682E3
:100AF000662311F0615061873196EC17FD0731F7DD
:100B0000DF91CF911F910F91089520E0D4CF315004
:100B10003683EECF4F925F927F928F929F92AF92E9
:100B2000BF92CF92DF92EF92FF920F931F93CF93DA
:100B3000DF932C01EB010E943A02F20127853089F4
:100B4000621B730B6A307105B0F3F8948A819B8144
:100B5000181619060CF0CDC1E881F98165B1862E11
:100B6000689487F835B13F7735B9DA848F812D2DB8
:100B7000281B822F2F834F85042E000C550BAA8132
:100B8000BB817D85FC84EE847F5FF394E3949E813A
:100B90009884B984AB841181C12C6C2D0C2D2C2D23
:100BA0002181112788942111280F08F42FEF8195B6
:100BB000889470FD120F1795889471FD120F179588
:100BC000889472FD120F1795889473FD120F179574
:100BD000889474FD120F1795889475FD120F179560
:100BE000889476FD120F1795889477FD120F17954C
:100BF0008894622F7111612F8D0D162F002C85B8EE
:100C000000C017FF35B920816627889400C000C056
:100C1000002C35B92111290F00C0002C85B800C067
:100C200016FF35B908F42FEF9195889400C000C0E5
:100C3000002C35B9F0FC620F00C0002C85B800C054
:100C400015FF35B967958894F1FC620F00C000C0AC
:100C5000002C35B96795889400C0002C85B800C079
:100C600014FF35B9F2FC620F6795889400C000C08C
:100C7000002C35B9F3FC620F00C0002C85B800C011
:100C800013FF35B967958894F4FC620F00C000C06B
:100C9000002C35B96795889400C0002C85B800C039
:100CA00012FF35B9F5FC620F6795889400C000C04B
:100CB000002C35B9F6FC620F00C0002C85B800C0CE
:100CC00011FF35B967958894F7FC620F00C000C02A
:100CD000002C35B96795889400C0002C85B800C0F9
:100CE00010FF35B9122FF110162F9B0D00C000C058
:100CF000002C35B900C000C0002C85B800C017FF1B
:100D000035B922816627889400C000C0002C35B90F
:100D10002111290D00C0002C85B800C016FF35B97F
:100D200008F42FEFE40FF51F00C000C0002C35B908
:100D3000E0FC620F00C0002C85B800C015FF35B97B
:100D400067958894E1FC620F00C000C0002C35B9A3
:100D50006795889400C0002C85B800C014FF35B991
:100D6000E2FC620F6795889400C000C0002C35B982
:100D7000E3FC620F00C0002C85B800C013FF35B93A
:100D800067958894E4FC620F00C000C0002C35B960
:100D90006795889400C0002C85B800C012FF35B953
:100DA000E5FC620F6795889400C000C0002C35B93F
:100DB000E6FC620F00C0002C85B800C011FF35B9F9
:100DC00067958894E7FC620F00C000C0002C35B91D
:100DD0006795889400C0002C85B800C010FF35B915
:100DE000122FE110162F919400C000C0002C35B9CD
:100DF0009A0C00C000C085B800C017FF35B921812A
:100E00006627889400C000C0002C35B92111280F36
:100E100000C0002C85B800C016FF35B908F42FEFCC
:100E20008195889400C000C0002C35B970FD620F18
:100E300000C0002C85B800C015FF35B967958894AF
:100E400071FD620F00C000C0002C35B96795889411
:100E500000C0002C85B800C014FF35B972FD620FC8
:100E60006795889400C000C0002C35B973FD620FEF
:100E700000C0002C85B800C013FF35B96795889471
:100E800074FD620F00C000C0002C35B967958894CE
:100E900000C0002C85B800C012FF35B975FD620F87
:100EA0006795889400C000C0002C35B976FD620FAC
:100EB00000C0002C85B800C011FF35B96795889433
:100EC00077FD620F00C000C0002C35B9679588948B
:100ED00000C0002C85B800C010FF35B9122F711169
:100EE000162F8D0D00C000C0002C35B9119709F0E8
:100EF00086CE4A815B8120EE31E0DA010E94E21168
:100F0000DC01CB01F4E0B695A79597958795FA9506
:100F1000D1F730E020E0B901EAE94E9F040E611DEF
:100F20005E9F600D711D1124650F711D860F971F47
:100F3000A11DB11D893E43E09407A105B10508F448
:100F400034C0885E9340A109B10942E0B695A795E7
:100F5000979587954A95D1F747E0849F080E211D04
:100F6000949F200D311D1124290F311D6091C60160
:100F700070E0860F971F820F931F4091F1015091EF
:100F8000F2016091F3017091F401292F3327420F90
:100F9000531F611D711D4093F1015093F201609345
:100FA000F3017093F4018093C60178940E943A0291
:100FB000F201708B6787DF91CF911F910F91FF90A6
:100FC000EF90DF90CF90BF90AF909F908F907F90E9
:100FD0005F904F90089581E090E00895279A0895DA
:100FE0006F927F928F92CF92DF92EF92FF920F9348
:100FF0001F93CF93DF93CDB7DEB762970FB6F89408
:10100000DEBF0FBECDBF6C017A013801822EDC013C
:101010001C962C91CA0157FF04C088279927841B6E
:10102000950B7A8369839C838B839E838D836D86E6
:101030007E868F86213049F5CE0101960E944D05AE
:1010400083E0888B1A8A198AF7FE02C08DEF888B9D
:10105000D601ED91FC910684F785E02DBE016F5F0E
:101060007F4FC601099562960FB6F894DEBF0FBE9A
:10107000CDBFDF91CF911F910F91FF90EF90DF9047
:10108000CF908F907F906F9008951C861B861A8654
:10109000198618861F82D4CFEF92FF920F931F9369
:1010A000CF93DF93CDB7DEB762970FB6F894DEBF6C
:1010B0000FBECDBF7C01DC011C968C917A836983C5
:1010C0005C834B835E834D830D871E872F87813022
:1010D000F9F4CE0101960E944D05188A1A8A198AE0
:1010E000D701ED91FC910684F785E02DBE016F5F7D
:1010F0007F4FC701099562960FB6F894DEBF0FBE09
:10110000CDBFDF91CF911F910F91FF90EF90089588
:101110001C861B861A86198618861F82DECFEF92E0
:10112000FF920F931F93CF93DF93EC0185E10E9411
:10113000D5017C0186E10E94D5018C0187E10E94E6
:10114000D501EF2821F4012B11F4892BC9F080E699
:101150009AEEA0E0B0E08093C3029093C402A09303
:10116000C502B093C6020E9491026093BF027093C1
:10117000C0028093C1029093C20283E08093BE02BA
:101180008091EE019091EF01887F9093EF01809321
:10119000EE01CE01DF91CF911F910F91FF90EF9063
:1011A0000895CF92DF92EF92FF920F931F93CF9308
:1011B000DF93EC0182E10E94D5016C0183E10E9482
:1011C000D5017C0184E10E94D5018C01C114D104B8
:1011D00031F4E114F10419F4892B09F444C080E6D8
:1011E0009AEEA0E0B0E08093C3029093C402A09373
:1011F000C502B093C6020E9491026093BF02709331
:10120000C0028093C1029093C20283E08093BE0229
:10121000CD2849F18091EE019091EF01816090938A
:10122000EF018093EE018091EE019091EF01EF28A4
:1012300001F182609093EF018093EE018091EE01C5
:101240009091EF01012BB9F084609093EF018093AE
:10125000EE01CE01DF91CF911F910F91FF90EF90A2
:10126000DF90CF9008958091EE019091EF018E7FF5
:10127000D6CF8D7FDFCF8B7FE8CF0F931F93CF9398
:10128000DF9300D01F92CDB7DEB7AB0119821A826F
:101290001B82DC01ED91FC910190F081E02D00E0DA
:1012A00010E020E0BE016F5F7F4F09950F900F9017
:1012B0000F90DF91CF911F910F910895FC018189CB
:1012C0000E94D50121E0892B09F420E0822F0895A6
:1012D0000F931F93CF93DF93EC01888180FF17C09A
:1012E0000E94910209811A812B813C81601B710B44
:1012F000820B930B0D811E812F813885601771073A
:101300008207930758F09EEF88818923888388811C
:101310008170DF91CF911F910F9108959FEFF4CFCE
:101320002F923F924F925F926F927F928F929F92F5
:10133000AF92BF92CF92DF92EF92FF920F931F93E3
:10134000CF93DF93CDB7DEB729970FB6F894DEBF02
:101350000FBECDBF898749835A836B837C830091FD
:10136000550210915602BDE78B2E912CA12CB12C69
:101370000115110509F46BC0D801ED91FC910084B1
:10138000F185E02DC80109951C01D8011296ED9157
:10139000FC91C12CD12C7601412C512C320120E042
:1013A00030E0A901009791F06081260F311D411DA9
:1013B000511D6181460E511C611C711C6281C60E5B
:1013C000D11CE11CF11C01973396ECCFA0E5B0E0F5
:1013D0000E94E9116D837E838F839887A7E3B0E035
:1013E000A30192010E94E9112B013C01ABE4B0E0A2
:1013F000A70196010E94E9112D813E814F815885F8
:10140000C32ED42EE52EFF2445E0429D9001439D3E
:10141000300D1124C20ED31EE11CF11C8C0C9D1C3E
:10142000AE1CBF1C452C562C672C7724840C951CB5
:10143000A61CB71C472F582F692F7727840E951E9F
:10144000A61EB71ED80114960D911C9191CFB98597
:10145000CB2ED12CF12CE12CA7019601C501B401B2
:101460000E949611872E982EA92EBB2429813A819D
:101470004B815C8182169306A406B50668F0A7012D
:10148000960169817A818B819C810E949611A501C8
:1014900094010E94BA112987898529960FB6F8947C
:1014A000DEBF0FBECDBFDF91CF911F910F91FF9097
:1014B000EF90DF90CF90BF90AF909F908F907F90F4
:1014C0006F905F904F903F902F900895FC01A28104
:1014D000B3819C9186812681982381E0921380E0DC
:1014E0000895FC0186810280F381E02D9081809532
:1014F000892380830895FC0196810280F381E02D89
:101500008081892B80830895FC01858596850895C7
:1015100090E080E00895FC0101900020E9F7319708
:10152000AF01481B590BBC018BE592E00C946E0493
:10153000CF93DF930E948B0AEC0183E591E00E9438
:101540008B0A8C0F9D1FDF91CF9108958F929F92F0
:10155000AF92BF92CF92DF92EF92FF920F931F93C1
:10156000CF93DF93CDB7DEB7A1970FB6F894DEBF68
:101570000FBECDBF6C01990FEE08FF08F7FE47C004
:101580006DE28BE592E00E94F2048C012227332762
:10159000A9012C193D094E095F0919A2CE018196B6
:1015A0007C019AE0892E912CA12CB12CCA01B901A1
:1015B000A50194010E94BA11605DF70162937F0159
:1015C000211531054105510589F790E080E03097FC
:1015D00019F0CF010E948B0A080F191F83E591E0D3
:1015E0000E948B0A800F911FA1960FB6F894DEBF60
:1015F0000FBECDBFDF91CF911F910F91FF90EF9064
:10160000DF90CF90BF90AF909F908F900895A701EB
:10161000960119A28E010F5D1F4F8AE0C82ED12CB2
:10162000E12CF12CCA01B901A70196010E94BA115F
:10163000605DF80162938F01211531054105510567
:1016400089F7309729F0CF010E948B0A8C01C6CF11
:1016500010E000E0C3CF0E9417121F920F920FB646
:101660000F9211242F933F938F939F93AF93BF9328
:101670008091F1019091F201A091F301B091F401F8
:101680003091F00123E0230F2D3758F50196A11D6D
:10169000B11D2093F0018093F1019093F201A0938A
:1016A000F301B093F4018091F5019091F601A091BE
:1016B000F701B091F8010196A11DB11D8093F501CC
:1016C0009093F601A093F701B093F801BF91AF9109
:1016D0009F918F913F912F910F900FBE0F901F9070
:1016E000189526E8230F0296A11DB11DD2CF1F9297
:1016F0000F920FB60F9211248F939F938091E10068
:101700009091E100937F9093E10083FF0FC01092CE
:10171000E90091E09093EB001092EC0092E390933B
:10172000ED001092060298E09093F00082FF1CC03A
:1017300093E09093E9009091F200992319F09AE3D5
:101740009093E8009091CD01992329F09091CD01DB
:1017500091509093CD0190910502992329F0909199
:10176000050291509093050284FF18C08091E20019
:101770008E7E81608093E2008091E1008F7E809375
:10178000E1008091CE018E7E80618093CE019F9199
:101790008F910F900FBE0F901F90189580FFF7CF7D
:1017A0008091E2008E7E80618093E2008091E10072
:1017B0008E7E8093E1008091CE018E7E8160E5CFA8
:1017C0001F920F920FB60F921124CF92DF92EF92D9
:1017D000FF920F931F932F933F934F935F936F93BA
:1017E0007F938F939F93AF93BF93EF93FF93CF9389
:1017F000DF93CDB7DEB76C97DEBFCDBF1092E900A7
:101800008091E80083FF2FC089E0FE017596EE2EDF
:10181000DF2E815029F09091F10090833196F9CF1D
:1018200084E68093050282EF8093E8008D8987FF2C
:1018300039C09091E80090FFFCCF982F907609F086
:1018400033C19E894F89588D2F89F88C911131C0F1
:10185000803861F58091CF018093F1001092F10002
:101860008EEF8093E8006C960FB6F894DEBF0FBE43
:10187000CDBFDF91CF91FF91EF91BF91AF919F913C
:101880008F917F916F915F914F913F912F911F9118
:101890000F91FF90EF90DF90CF900F900FBE0F90C1
:1018A0001F9018959EEF9093E800C7CF1092F1001B
:1018B000D5CF913059F48111D3CF4130510581F604
:1018C0008091CF018D7F8093CF01CACF933049F4AF
:1018D0008111C6CF4130510519F68091CF01826048
:1018E000F2CF953041F48091E80080FFFCCF206872
:1018F0002093E300B5CF963009F0A8C00B8D1C8D66
:1019000022E01092E9001092CB011092CA01F2126B
:101910002EC01092C9011092C8010E943D041F827E
:1019200099E09983FA8291E09E8390EA98879AEFF2
:1019300099872091CA013091CB01275F3F4F3C83AB
:101940002B838D831092E9001092CB011092CA0173
:101950001093C9010093C80149E050E0BE016F5FD8
:101960007F4F80E00E9417040E943D0479CF1093BE
:10197000C9010093C8010E947501DC0112960D9106
:101980001C910115110509F457C1D801ED91FC9185
:101990000480F581E02D6E2D7D2DC80109950097FD
:1019A00009F045C1F80100851185EBCFF3E0FF1286
:1019B0000EC08F89882309F440C0823061F440E86A
:1019C00067E18DE091E00E94E403811149CF81E25B
:1019D0008093EB0048CF813029F440E868E084E050
:1019E00091E0F1CF833099F70E947501DC011296E6
:1019F000ED90FC908E010F5F1F4F6801E114F10420
:101A000079F0D701ED91FC910680F781E02DB801C6
:101A1000C7010995080F111DF701E084F184EECF8D
:101A2000D8011C92F60101900020E9F73197BF011F
:101A30006C197D0940E0C601C6CF6EEE70E0FB0177
:101A4000449150E080E80E9417040ACF973009F4CF
:101A5000BECF983021F481E08093F10001CF99301E
:101A600009F0FECE837009F0B2CFEDE0F1E081E045
:101A700031E096E32191222371F08093E9003093C5
:101A8000EB00DF0111972C912093EC009093ED0077
:101A90008F5F873079F78EE78093EA001092EA0033
:101AA0008F8980930602DCCE8B8D9C8D1092E9008D
:101AB0001092CB011092CA019093C9018093C80182
:101AC000898D81119AC08E899D89913A49F481321C
:101AD00009F07DCF47E050E064E071E080E0B3CFF3
:101AE000913209F074CF833269F48F89988DB0E018
:101AF000A0E08093000190930101A0930201B093B4
:101B00000301AECE8032A9F48091E80082FFFCCFC1
:101B100088E0E4E0F1E0815029F09091F1009083B9
:101B20003196F9CF84E6809305028BEF8093E8002D
:101B300097CE823209F094CE8F8980930B01EEEF1D
:101B4000FFE7859194918B3F9C4D51F1E0E0F8E0E7
:101B50008091040190910501A0910601B0910701C7
:101B6000803B9440A105B105F1F480910B0180FD0B
:101B70001AC0EE3F8AE0F80789F587E797E7918377
:101B80008083809160008093CC0188E19BE00FB658
:101B9000F894A895809360000FBE9093600060CE8B
:101BA000EEEFFAE0D5CF808191818737974709F032
:101BB00057CEA895809160008861809360008091E5
:101BC000CC0180936000EE3F2AE0F20789F080911B
:101BD000FE0A9091FF0A9183808342CE8081918199
:101BE0008737980751F29093FF0A8093FE0AC5CF7A
:101BF0001092FF0A1092FE0A33CE0E947501DC019A
:101C000012960D911C910115110509F4E0CED80131
:101C1000ED91FC910190F081E02D6E2D7D2DC8019C
:101C2000099581111DCEF80100851185ECCF18169C
:101C300019060CF415CECBCEF1E0FF12B7CE62EF51
:101C400070E0FDCEEBE5F2E01382128288EE93E0C5
:101C5000A0E0B0E084839583A683B7838DE391E011
:101C6000918380838FEF9FEF95878487E7ECF2E085
:101C700010821182128213821482158216821782B8
:101C80001086EEEBF2E0108211821282138214822F
:101C90001582168217821086EBEAF2E01282138216
:101CA000148215828AE090E0978386831086118AD9
:101CB0008FE491E09183808381E0828BE0EDF2E01C
:101CC0008FEF808312821182148613868FEF9FEF2D
:101CD000DC0187839087A187B2870895CF93DF9334
:101CE00000D01F92CDB7DEB7789484B5826084BDF2
:101CF00084B5816084BD85B5826085BD85B5816010
:101D000085BD80916E00816080936E00109281008D
:101D10008091810082608093810080918100816048
:101D20008093810080918000816080938000809109
:101D300091008260809391008091910081608093F6
:101D40009100809190008160809390008091C1000B
:101D500084608093C1008091C10082608093C10043
:101D60008091C10081608093C1008091C300816037
:101D70008093C3008091C00082608093C0008091F6
:101D8000C20081608093C20080917A008460809359
:101D90007A0080917A00826080937A0080917A0044
:101DA000816080937A0080917A00806880937A00C5
:101DB000109206021092CF011092CE018091D700AE
:101DC00081608093D70080EA8093D80089B58061D4
:101DD00089BD89B5826089BD09B400FEFDCF61E08F
:101DE00070E080E090E00E945F028091D8008F7CDC
:101DF00080618093D8008091E000807F8093E00034
:101E00008091E1008E7E8093E1008DE08093E2007E
:101E10008FEF9FEF90936802809367028091E301B8
:101E2000811145C01092D5011092D4018FEF80939B
:101E3000D8018093D9018093DA018093DB018093EC
:101E4000DC018093DD0181E08093DE011092E001EE
:101E50001092DF011092D7011092D60180915502A5
:101E600090915602892B31F482ED91E090935602C5
:101E700080935502E091D001F091D101309721F08B
:101E800082ED91E09583848382ED91E09093D1017E
:101E90008093D0011092E2011092E10189E291E079
:101EA0009093D3018093D20181E08093E301279A3C
:101EB00087E092E09093D5018093D40188E190E08F
:101EC0009093E0018093DF018091D3029091D4023E
:101ED000A091D502B091D602843C29E09207A105D9
:101EE000B10520F484EC99E0A0E0B0E08093D30247
:101EF0009093D402A093D502B093D6028FEF809333
:101F0000D80180EB8093D90180EF8093DA0180E9DA
:101F100099E09093DC028093DB028CEE9CE2A0E0DF
:101F2000B0E08093D7029093D802A093D902B093E7
:101F3000DA0262E081E00E94FE0181E08093BC024F
:101F40001092B3028BEA92E00E945E09882329F086
:101F50008091B30283608093B3020E9491026093E8
:101F6000AD027093AE028093AF029093B0021092D4
:101F7000BD0260E082E10E94FE0160E083E10E9418
:101F8000FE0160E084E10E94FE0160E085E10E94C4
:101F9000FE0160E086E10E94FE0160E087E10E94B0
:101FA000FE0161E08AE00E94FE011FEF19831A82A0
:101FB0001B82CE0101960E9401010E949D0268EEE3
:101FC00073E080E090E00E945F02198280E88A83DB
:101FD0001B82CE0101960E9401010E949D0268EEC3
:101FE00073E080E090E00E945F0219821A821B83F6
:101FF000CE0101960E9401010E949D0268EE73E0ED
:1020000080E090E00E945F0219821A821B82CE015A
:1020100001960E9401010E949D0220E0622E20E0B4
:10202000722E30E6C32E3AEED32EE12CF12C40E98D
:10203000842E99249394A12CB12C86E591E00E94E2
:102040008B0A8091EB01882309F40CC183E691E0AF
:102050000E94980A6CE271E080E090E00E945F02CA
:1020600082E791E00E94980A8091EE019091EF0141
:102070000E948F088C019093EF018093EE0189E814
:1020800091E00E948B0AC8010E94A60A6CE271E0EE
:1020900080E090E00E945F0282E791E00E94980A4F
:1020A0008091EC019091ED010E94D1088C019093F8
:1020B000ED018093EC0189E991E00E948B0AC8014F
:1020C0000E94A60A6CE271E080E090E00E945F024C
:1020D00082E791E00E94980A89EA91E00E94980ABA
:1020E0008091B30281709091BD029813BEC08EEBB7
:1020F00091E00E94980A8091B3028B7F8093B30293
:102100008BEA92E00E945E09182F8091B3028695B7
:102110008170181709F4ACC00E9491026093AD025F
:102120007093AE028093AF029093B0028091B3029D
:1021300092E089278093B3028091B30282FF49C065
:1021400081709091BD02981344C087EC92E00E9488
:10215000680981113EC08091EE019091EF010E94CB
:10216000D1089093EF018093EE018091EC01909162
:10217000ED010E948F089093ED018093EC01C092D5
:10218000C302D092C402E092C502F092C6020E943D
:1021900091026093BF027093C0028093C10290933A
:1021A000C20293E0492E4092BE028092CC029092ED
:1021B000CD02A092CE02B092CF020E949102609313
:1021C000C8027093C9028093CA029093CB024092D6
:1021D000C7028EEB92E00E946809811126C04090F0
:1021E000EB015524539445244092EB01EDE3F1E0DB
:1021F0008491E7E9F1E00491E8E7F1E0149111231B
:10220000A1F081110E948901E12FF0E0EE0FFF1F84
:10221000E05AFE4FA591B4918FB7F8949C9141106C
:102220007EC0009509230C938FBF2091EE01309161
:10223000EF018091EC019091ED012817390709F029
:1022400070C01982F0E8FA831B82CE0101960E94C9
:1022500001010E949D026114710409F4EECE0E94F6
:102260000000EBCE8AE691E0F3CE8AEB91E041CF1D
:102270000E9491022091AD023091AE024091AF02D6
:102280005091B0021B012C01221A330A440A550A4C
:10229000B201A1018091B1029091B202B0E0A0E040
:1022A000481759076A077B0708F446CF8091B302A5
:1022B0008170181709F440CF0E9491026093AD021B
:1022C0007093AE028093AF029093B0028091B302FC
:1022D00033243394832584608093B3020E94910257
:1022E0000091B4021091B5022091B6023091B7026C
:1022F000601B710B820B930B6093B8027093B90251
:102300008093BA029093BB020E9491026093B40240
:102310007093B5028093B6029093B7020DCF092B4C
:1023200082CF22242A9429821A828ECFDB018F93B6
:102330009F930E94E911BF91AF91A29F800D911DC3
:10234000A39F900DB29F900D1124089597FB072E27
:1023500016F4009407D077FD09D00E94F41107FC11
:1023600005D03EF4909581959F4F089570956195A5
:102370007F4F0895A1E21A2EAA1BBB1BFD010DC0C1
:10238000AA1FBB1FEE1FFF1FA217B307E407F50725
:1023900020F0A21BB30BE40BF50B661F771F881F01
:1023A000991F1A9469F760957095809590959B0197
:1023B000AC01BD01CF010895EE0FFF1F0590F49110
:1023C000E02D09940E940812B7FF0895821B930B19
:1023D00008950E940812A59F900DB49F900DA49F90
:1023E000800D911D11240895AA1BBB1B51E107C04C
:1023F000AA1FBB1FA617B70710F0A61BB70B881F95
:10240000991F5A95A9F780959095BC01CD01089523
:10241000A29FB001B39FC001A39F700D811D112425
:10242000911DB29F700D811D1124911D089581E0B1
:0C24300090E0F8940C941C12F894FFCF7C
:10243C00FFFFFFFF00E100000000000000C18081F1
:10244C00000000000000002B0B2B0B2B0B3D098414
:10245C000AEB07880A000000004C08F007EE073D65
:10246C0009840AEB07B3038A0500000000F2046E2E
:10247C000413050805330517052305000000005E4D
:10248C0009AF030D0A0046616E20537461747573B5
:10249C003A200046616E204F6E0046616E204F66FA
:1024AC0066002A2A2A2A2A2A2A2A2A2A2A2A2A2A6E
:1024BC002A2A2A2A2A2A2A2A005363656E7420455E
:1024CC006E636F6465723A2000496D6167652045E3
:1024DC006E636F6465723A2000427574746F6E207F
:1024EC00507265737365643A20004E6F742050729D
:0624FC00657373656400C6
:00000001FF
